{
  "_format": "hh-sol-artifact-1",
  "contractName": "FinalProjectToken1155",
  "sourceName": "contracts/FinalProjectToken1155.sol",
  "abi": [
    {
      "inputs": [],
      "stateMutability": "nonpayable",
      "type": "constructor"
    },
    {
      "anonymous": false,
      "inputs": [
        {
          "indexed": true,
          "internalType": "address",
          "name": "account",
          "type": "address"
        },
        {
          "indexed": true,
          "internalType": "address",
          "name": "operator",
          "type": "address"
        },
        {
          "indexed": false,
          "internalType": "bool",
          "name": "approved",
          "type": "bool"
        }
      ],
      "name": "ApprovalForAll",
      "type": "event"
    },
    {
      "anonymous": false,
      "inputs": [
        {
          "indexed": true,
          "internalType": "address",
          "name": "previousOwner",
          "type": "address"
        },
        {
          "indexed": true,
          "internalType": "address",
          "name": "newOwner",
          "type": "address"
        }
      ],
      "name": "OwnershipTransferred",
      "type": "event"
    },
    {
      "anonymous": false,
      "inputs": [
        {
          "indexed": true,
          "internalType": "address",
          "name": "operator",
          "type": "address"
        },
        {
          "indexed": true,
          "internalType": "address",
          "name": "from",
          "type": "address"
        },
        {
          "indexed": true,
          "internalType": "address",
          "name": "to",
          "type": "address"
        },
        {
          "indexed": false,
          "internalType": "uint256[]",
          "name": "ids",
          "type": "uint256[]"
        },
        {
          "indexed": false,
          "internalType": "uint256[]",
          "name": "values",
          "type": "uint256[]"
        }
      ],
      "name": "TransferBatch",
      "type": "event"
    },
    {
      "anonymous": false,
      "inputs": [
        {
          "indexed": true,
          "internalType": "address",
          "name": "operator",
          "type": "address"
        },
        {
          "indexed": true,
          "internalType": "address",
          "name": "from",
          "type": "address"
        },
        {
          "indexed": true,
          "internalType": "address",
          "name": "to",
          "type": "address"
        },
        {
          "indexed": false,
          "internalType": "uint256",
          "name": "id",
          "type": "uint256"
        },
        {
          "indexed": false,
          "internalType": "uint256",
          "name": "value",
          "type": "uint256"
        }
      ],
      "name": "TransferSingle",
      "type": "event"
    },
    {
      "anonymous": false,
      "inputs": [
        {
          "indexed": false,
          "internalType": "string",
          "name": "value",
          "type": "string"
        },
        {
          "indexed": true,
          "internalType": "uint256",
          "name": "id",
          "type": "uint256"
        }
      ],
      "name": "URI",
      "type": "event"
    },
    {
      "inputs": [],
      "name": "AXE",
      "outputs": [
        {
          "internalType": "uint256",
          "name": "",
          "type": "uint256"
        }
      ],
      "stateMutability": "view",
      "type": "function"
    },
    {
      "inputs": [],
      "name": "BOW",
      "outputs": [
        {
          "internalType": "uint256",
          "name": "",
          "type": "uint256"
        }
      ],
      "stateMutability": "view",
      "type": "function"
    },
    {
      "inputs": [],
      "name": "SWORD",
      "outputs": [
        {
          "internalType": "uint256",
          "name": "",
          "type": "uint256"
        }
      ],
      "stateMutability": "view",
      "type": "function"
    },
    {
      "inputs": [
        {
          "internalType": "address",
          "name": "account",
          "type": "address"
        },
        {
          "internalType": "uint256",
          "name": "id",
          "type": "uint256"
        }
      ],
      "name": "balanceOf",
      "outputs": [
        {
          "internalType": "uint256",
          "name": "",
          "type": "uint256"
        }
      ],
      "stateMutability": "view",
      "type": "function"
    },
    {
      "inputs": [
        {
          "internalType": "address[]",
          "name": "accounts",
          "type": "address[]"
        },
        {
          "internalType": "uint256[]",
          "name": "ids",
          "type": "uint256[]"
        }
      ],
      "name": "balanceOfBatch",
      "outputs": [
        {
          "internalType": "uint256[]",
          "name": "",
          "type": "uint256[]"
        }
      ],
      "stateMutability": "view",
      "type": "function"
    },
    {
      "inputs": [
        {
          "internalType": "address",
          "name": "account",
          "type": "address"
        },
        {
          "internalType": "address",
          "name": "operator",
          "type": "address"
        }
      ],
      "name": "isApprovedForAll",
      "outputs": [
        {
          "internalType": "bool",
          "name": "",
          "type": "bool"
        }
      ],
      "stateMutability": "view",
      "type": "function"
    },
    {
      "inputs": [
        {
          "internalType": "address",
          "name": "account",
          "type": "address"
        },
        {
          "internalType": "uint256",
          "name": "id",
          "type": "uint256"
        },
        {
          "internalType": "uint256",
          "name": "amount",
          "type": "uint256"
        },
        {
          "internalType": "bytes",
          "name": "data",
          "type": "bytes"
        }
      ],
      "name": "mint",
      "outputs": [],
      "stateMutability": "nonpayable",
      "type": "function"
    },
    {
      "inputs": [
        {
          "internalType": "address",
          "name": "to",
          "type": "address"
        },
        {
          "internalType": "uint256[]",
          "name": "ids",
          "type": "uint256[]"
        },
        {
          "internalType": "uint256[]",
          "name": "amounts",
          "type": "uint256[]"
        },
        {
          "internalType": "bytes",
          "name": "data",
          "type": "bytes"
        }
      ],
      "name": "mintBatch",
      "outputs": [],
      "stateMutability": "nonpayable",
      "type": "function"
    },
    {
      "inputs": [],
      "name": "name",
      "outputs": [
        {
          "internalType": "string",
          "name": "",
          "type": "string"
        }
      ],
      "stateMutability": "view",
      "type": "function"
    },
    {
      "inputs": [],
      "name": "owner",
      "outputs": [
        {
          "internalType": "address",
          "name": "",
          "type": "address"
        }
      ],
      "stateMutability": "view",
      "type": "function"
    },
    {
      "inputs": [],
      "name": "renounceOwnership",
      "outputs": [],
      "stateMutability": "nonpayable",
      "type": "function"
    },
    {
      "inputs": [
        {
          "internalType": "address",
          "name": "from",
          "type": "address"
        },
        {
          "internalType": "address",
          "name": "to",
          "type": "address"
        },
        {
          "internalType": "uint256[]",
          "name": "ids",
          "type": "uint256[]"
        },
        {
          "internalType": "uint256[]",
          "name": "amounts",
          "type": "uint256[]"
        },
        {
          "internalType": "bytes",
          "name": "data",
          "type": "bytes"
        }
      ],
      "name": "safeBatchTransferFrom",
      "outputs": [],
      "stateMutability": "nonpayable",
      "type": "function"
    },
    {
      "inputs": [
        {
          "internalType": "address",
          "name": "from",
          "type": "address"
        },
        {
          "internalType": "address",
          "name": "to",
          "type": "address"
        },
        {
          "internalType": "uint256",
          "name": "id",
          "type": "uint256"
        },
        {
          "internalType": "uint256",
          "name": "amount",
          "type": "uint256"
        },
        {
          "internalType": "bytes",
          "name": "data",
          "type": "bytes"
        }
      ],
      "name": "safeTransferFrom",
      "outputs": [],
      "stateMutability": "nonpayable",
      "type": "function"
    },
    {
      "inputs": [
        {
          "internalType": "address",
          "name": "operator",
          "type": "address"
        },
        {
          "internalType": "bool",
          "name": "approved",
          "type": "bool"
        }
      ],
      "name": "setApprovalForAll",
      "outputs": [],
      "stateMutability": "nonpayable",
      "type": "function"
    },
    {
      "inputs": [
        {
          "internalType": "string",
          "name": "newuri",
          "type": "string"
        }
      ],
      "name": "setURI",
      "outputs": [],
      "stateMutability": "nonpayable",
      "type": "function"
    },
    {
      "inputs": [
        {
          "internalType": "bytes4",
          "name": "interfaceId",
          "type": "bytes4"
        }
      ],
      "name": "supportsInterface",
      "outputs": [
        {
          "internalType": "bool",
          "name": "",
          "type": "bool"
        }
      ],
      "stateMutability": "view",
      "type": "function"
    },
    {
      "inputs": [],
      "name": "symbol",
      "outputs": [
        {
          "internalType": "string",
          "name": "",
          "type": "string"
        }
      ],
      "stateMutability": "view",
      "type": "function"
    },
    {
      "inputs": [
        {
          "internalType": "address",
          "name": "newOwner",
          "type": "address"
        }
      ],
      "name": "transferOwnership",
      "outputs": [],
      "stateMutability": "nonpayable",
      "type": "function"
    },
    {
      "inputs": [
        {
          "internalType": "uint256",
          "name": "_tokenid",
          "type": "uint256"
        }
      ],
      "name": "uri",
      "outputs": [
        {
          "internalType": "string",
          "name": "",
          "type": "string"
        }
      ],
      "stateMutability": "pure",
      "type": "function"
    }
  ],
  "bytecode": "0x60806040523480156200001157600080fd5b506040518060a00160405280606c815260200162004971606c91396200003d816200016160201b60201c565b506200005e620000526200017660201b60201c565b6200017e60201b60201c565b6040518060400160405280600781526020017f465054313135350000000000000000000000000000000000000000000000000081525060049081620000a4919062000a32565b506040518060400160405280600381526020017f465054000000000000000000000000000000000000000000000000000000000081525060059081620000eb919062000a32565b5062000111336000600a604051806020016040528060008152506200024460201b60201c565b62000136336001600a604051806020016040528060008152506200024460201b60201c565b6200015b336002600a604051806020016040528060008152506200024460201b60201c565b62001184565b806002908162000172919062000a32565b5050565b600033905090565b6000600360009054906101000a900473ffffffffffffffffffffffffffffffffffffffff16905081600360006101000a81548173ffffffffffffffffffffffffffffffffffffffff021916908373ffffffffffffffffffffffffffffffffffffffff1602179055508173ffffffffffffffffffffffffffffffffffffffff168173ffffffffffffffffffffffffffffffffffffffff167f8be0079c531659141344cd1fd0a4f28419497f9722a3daafe3b4186f6b6457e060405160405180910390a35050565b620002546200026e60201b60201c565b6200026884848484620002ff60201b60201c565b50505050565b6200027e6200017660201b60201c565b73ffffffffffffffffffffffffffffffffffffffff16620002a4620004e660201b60201c565b73ffffffffffffffffffffffffffffffffffffffff1614620002fd576040517f08c379a0000000000000000000000000000000000000000000000000000000008152600401620002f49062000b7a565b60405180910390fd5b565b600073ffffffffffffffffffffffffffffffffffffffff168473ffffffffffffffffffffffffffffffffffffffff160362000371576040517f08c379a0000000000000000000000000000000000000000000000000000000008152600401620003689062000c12565b60405180910390fd5b6000620003836200017660201b60201c565b9050600062000398856200051060201b60201c565b90506000620003ad856200051060201b60201c565b9050620003c6836000898585896200059160201b60201c565b8460008088815260200190815260200160002060008973ffffffffffffffffffffffffffffffffffffffff1673ffffffffffffffffffffffffffffffffffffffff168152602001908152602001600020600082825462000427919062000c63565b925050819055508673ffffffffffffffffffffffffffffffffffffffff16600073ffffffffffffffffffffffffffffffffffffffff168473ffffffffffffffffffffffffffffffffffffffff167fc3d58168c5ae7397731d063d5bbf3d657854427343f4c083240f7aacaa2d0f628989604051620004a792919062000caf565b60405180910390a4620004c6836000898585896200059960201b60201c565b620004dd83600089898989620005a160201b60201c565b50505050505050565b6000600360009054906101000a900473ffffffffffffffffffffffffffffffffffffffff16905090565b60606000600167ffffffffffffffff811115620005325762000531620007c3565b5b604051908082528060200260200182016040528015620005615781602001602082028036833780820191505090505b50905082816000815181106200057c576200057b62000cdc565b5b60200260200101818152505080915050919050565b505050505050565b505050505050565b620005c88473ffffffffffffffffffffffffffffffffffffffff166200079560201b60201c565b156200078d578373ffffffffffffffffffffffffffffffffffffffff1663f23a6e6187878686866040518663ffffffff1660e01b81526004016200061195949392919062000dea565b6020604051808303816000875af19250505080156200065057506040513d601f19601f820116820180604052508101906200064d919062000eba565b60015b62000701576200065f62000ef9565b806308c379a003620006c257506200067662000f54565b80620006835750620006c4565b806040517f08c379a0000000000000000000000000000000000000000000000000000000008152600401620006b9919062001030565b60405180910390fd5b505b6040517f08c379a0000000000000000000000000000000000000000000000000000000008152600401620006f890620010ca565b60405180910390fd5b63f23a6e6160e01b7bffffffffffffffffffffffffffffffffffffffffffffffffffffffff1916817bffffffffffffffffffffffffffffffffffffffffffffffffffffffff1916146200078b576040517f08c379a0000000000000000000000000000000000000000000000000000000008152600401620007829062001162565b60405180910390fd5b505b505050505050565b6000808273ffffffffffffffffffffffffffffffffffffffff163b119050919050565b600081519050919050565b7f4e487b7100000000000000000000000000000000000000000000000000000000600052604160045260246000fd5b7f4e487b7100000000000000000000000000000000000000000000000000000000600052602260045260246000fd5b600060028204905060018216806200083a57607f821691505b60208210810362000850576200084f620007f2565b5b50919050565b60008190508160005260206000209050919050565b60006020601f8301049050919050565b600082821b905092915050565b600060088302620008ba7fffffffffffffffffffffffffffffffffffffffffffffffffffffffffffffffff826200087b565b620008c686836200087b565b95508019841693508086168417925050509392505050565b6000819050919050565b6000819050919050565b6000620009136200090d6200090784620008de565b620008e8565b620008de565b9050919050565b6000819050919050565b6200092f83620008f2565b620009476200093e826200091a565b84845462000888565b825550505050565b600090565b6200095e6200094f565b6200096b81848462000924565b505050565b5b8181101562000993576200098760008262000954565b60018101905062000971565b5050565b601f821115620009e257620009ac8162000856565b620009b7846200086b565b81016020851015620009c7578190505b620009df620009d6856200086b565b83018262000970565b50505b505050565b600082821c905092915050565b600062000a0760001984600802620009e7565b1980831691505092915050565b600062000a228383620009f4565b9150826002028217905092915050565b62000a3d82620007b8565b67ffffffffffffffff81111562000a595762000a58620007c3565b5b62000a65825462000821565b62000a7282828562000997565b600060209050601f83116001811462000aaa576000841562000a95578287015190505b62000aa1858262000a14565b86555062000b11565b601f19841662000aba8662000856565b60005b8281101562000ae45784890151825560018201915060208501945060208101905062000abd565b8683101562000b04578489015162000b00601f891682620009f4565b8355505b6001600288020188555050505b505050505050565b600082825260208201905092915050565b7f4f776e61626c653a2063616c6c6572206973206e6f7420746865206f776e6572600082015250565b600062000b6260208362000b19565b915062000b6f8262000b2a565b602082019050919050565b6000602082019050818103600083015262000b958162000b53565b9050919050565b7f455243313135353a206d696e7420746f20746865207a65726f2061646472657360008201527f7300000000000000000000000000000000000000000000000000000000000000602082015250565b600062000bfa60218362000b19565b915062000c078262000b9c565b604082019050919050565b6000602082019050818103600083015262000c2d8162000beb565b9050919050565b7f4e487b7100000000000000000000000000000000000000000000000000000000600052601160045260246000fd5b600062000c7082620008de565b915062000c7d83620008de565b925082820190508082111562000c985762000c9762000c34565b5b92915050565b62000ca981620008de565b82525050565b600060408201905062000cc6600083018562000c9e565b62000cd5602083018462000c9e565b9392505050565b7f4e487b7100000000000000000000000000000000000000000000000000000000600052603260045260246000fd5b600073ffffffffffffffffffffffffffffffffffffffff82169050919050565b600062000d388262000d0b565b9050919050565b62000d4a8162000d2b565b82525050565b600081519050919050565b600082825260208201905092915050565b60005b8381101562000d8c57808201518184015260208101905062000d6f565b60008484015250505050565b6000601f19601f8301169050919050565b600062000db68262000d50565b62000dc2818562000d5b565b935062000dd481856020860162000d6c565b62000ddf8162000d98565b840191505092915050565b600060a08201905062000e01600083018862000d3f565b62000e10602083018762000d3f565b62000e1f604083018662000c9e565b62000e2e606083018562000c9e565b818103608083015262000e42818462000da9565b90509695505050505050565b6000604051905090565b600080fd5b60007fffffffff0000000000000000000000000000000000000000000000000000000082169050919050565b62000e948162000e5d565b811462000ea057600080fd5b50565b60008151905062000eb48162000e89565b92915050565b60006020828403121562000ed35762000ed262000e58565b5b600062000ee38482850162000ea3565b91505092915050565b60008160e01c9050919050565b600060033d111562000f1b5760046000803e62000f1860005162000eec565b90505b90565b62000f298262000d98565b810181811067ffffffffffffffff8211171562000f4b5762000f4a620007c3565b5b80604052505050565b600060443d1062000fec5762000f6962000e4e565b60043d036004823e80513d602482011167ffffffffffffffff8211171562000f9357505062000fec565b808201805167ffffffffffffffff81111562000fb3575050505062000fec565b80602083010160043d03850181111562000fd257505050505062000fec565b62000fe38260200185018662000f1e565b82955050505050505b90565b600062000ffc82620007b8565b62001008818562000b19565b93506200101a81856020860162000d6c565b620010258162000d98565b840191505092915050565b600060208201905081810360008301526200104c818462000fef565b905092915050565b7f455243313135353a207472616e7366657220746f206e6f6e2d4552433131353560008201527f526563656976657220696d706c656d656e746572000000000000000000000000602082015250565b6000620010b260348362000b19565b9150620010bf8262001054565b604082019050919050565b60006020820190508181036000830152620010e581620010a3565b9050919050565b7f455243313135353a204552433131353552656365697665722072656a6563746560008201527f6420746f6b656e73000000000000000000000000000000000000000000000000602082015250565b60006200114a60288362000b19565b91506200115782620010ec565b604082019050919050565b600060208201905081810360008301526200117d816200113b565b9050919050565b6137dd80620011946000396000f3fe608060405234801561001057600080fd5b50600436106101205760003560e01c80634e1273f4116100ad57806395d89b411161007157806395d89b41146102f5578063a22cb46514610313578063e985e9c51461032f578063f242432a1461035f578063f2fde38b1461037b57610120565b80634e1273f414610263578063715018a614610293578063731133e91461029d5780637dd2a0ee146102b95780638da5cb5b146102d757610120565b80630e89341c116100f45780630e89341c146101bf57806313dc989f146101ef578063153ee9e01461020d5780631f7fdffa1461022b5780632eb2c2d61461024757610120565b8062fdd58e1461012557806301ffc9a71461015557806302fe53051461018557806306fdde03146101a1575b600080fd5b61013f600480360381019061013a9190611e9c565b610397565b60405161014c9190611eeb565b60405180910390f35b61016f600480360381019061016a9190611f5e565b61045f565b60405161017c9190611fa6565b60405180910390f35b61019f600480360381019061019a9190612107565b610541565b005b6101a9610555565b6040516101b691906121cf565b60405180910390f35b6101d960048036038101906101d491906121f1565b6105e3565b6040516101e691906121cf565b60405180910390f35b6101f7610614565b6040516102049190611eeb565b60405180910390f35b610215610619565b6040516102229190611eeb565b60405180910390f35b61024560048036038101906102409190612387565b61061e565b005b610261600480360381019061025c9190612442565b610638565b005b61027d600480360381019061027891906125d4565b6106d9565b60405161028a919061270a565b60405180910390f35b61029b6107f2565b005b6102b760048036038101906102b2919061272c565b610806565b005b6102c1610820565b6040516102ce9190611eeb565b60405180910390f35b6102df610825565b6040516102ec91906127be565b60405180910390f35b6102fd61084f565b60405161030a91906121cf565b60405180910390f35b61032d60048036038101906103289190612805565b6108dd565b005b61034960048036038101906103449190612845565b6108f3565b6040516103569190611fa6565b60405180910390f35b61037960048036038101906103749190612885565b610987565b005b6103956004803603810190610390919061291c565b610a28565b005b60008073ffffffffffffffffffffffffffffffffffffffff168373ffffffffffffffffffffffffffffffffffffffff1603610407576040517f08c379a00000000000000000000000000000000000000000000000000000000081526004016103fe906129bb565b60405180910390fd5b60008083815260200190815260200160002060008473ffffffffffffffffffffffffffffffffffffffff1673ffffffffffffffffffffffffffffffffffffffff16815260200190815260200160002054905092915050565b60007fd9b67a26000000000000000000000000000000000000000000000000000000007bffffffffffffffffffffffffffffffffffffffffffffffffffffffff1916827bffffffffffffffffffffffffffffffffffffffffffffffffffffffff1916148061052a57507f0e89341c000000000000000000000000000000000000000000000000000000007bffffffffffffffffffffffffffffffffffffffffffffffffffffffff1916827bffffffffffffffffffffffffffffffffffffffffffffffffffffffff1916145b8061053a575061053982610aab565b5b9050919050565b610549610b15565b61055281610b93565b50565b6004805461056290612a0a565b80601f016020809104026020016040519081016040528092919081815260200182805461058e90612a0a565b80156105db5780601f106105b0576101008083540402835291602001916105db565b820191906000526020600020905b8154815290600101906020018083116105be57829003601f168201915b505050505081565b60606105ee82610ba6565b6040516020016105fe9190612b5b565b6040516020818303038152906040529050919050565b600081565b600281565b610626610b15565b61063284848484610c74565b50505050565b610640610ea0565b73ffffffffffffffffffffffffffffffffffffffff168573ffffffffffffffffffffffffffffffffffffffff161480610686575061068585610680610ea0565b6108f3565b5b6106c5576040517f08c379a00000000000000000000000000000000000000000000000000000000081526004016106bc90612bfa565b60405180910390fd5b6106d28585858585610ea8565b5050505050565b6060815183511461071f576040517f08c379a000000000000000000000000000000000000000000000000000000000815260040161071690612c8c565b60405180910390fd5b6000835167ffffffffffffffff81111561073c5761073b611fdc565b5b60405190808252806020026020018201604052801561076a5781602001602082028036833780820191505090505b50905060005b84518110156107e7576107b785828151811061078f5761078e612cac565b5b60200260200101518583815181106107aa576107a9612cac565b5b6020026020010151610397565b8282815181106107ca576107c9612cac565b5b602002602001018181525050806107e090612d0a565b9050610770565b508091505092915050565b6107fa610b15565b61080460006111c9565b565b61080e610b15565b61081a8484848461128f565b50505050565b600181565b6000600360009054906101000a900473ffffffffffffffffffffffffffffffffffffffff16905090565b6005805461085c90612a0a565b80601f016020809104026020016040519081016040528092919081815260200182805461088890612a0a565b80156108d55780601f106108aa576101008083540402835291602001916108d5565b820191906000526020600020905b8154815290600101906020018083116108b857829003601f168201915b505050505081565b6108ef6108e8610ea0565b838361143f565b5050565b6000600160008473ffffffffffffffffffffffffffffffffffffffff1673ffffffffffffffffffffffffffffffffffffffff16815260200190815260200160002060008373ffffffffffffffffffffffffffffffffffffffff1673ffffffffffffffffffffffffffffffffffffffff16815260200190815260200160002060009054906101000a900460ff16905092915050565b61098f610ea0565b73ffffffffffffffffffffffffffffffffffffffff168573ffffffffffffffffffffffffffffffffffffffff1614806109d557506109d4856109cf610ea0565b6108f3565b5b610a14576040517f08c379a0000000000000000000000000000000000000000000000000000000008152600401610a0b90612bfa565b60405180910390fd5b610a2185858585856115ab565b5050505050565b610a30610b15565b600073ffffffffffffffffffffffffffffffffffffffff168173ffffffffffffffffffffffffffffffffffffffff1603610a9f576040517f08c379a0000000000000000000000000000000000000000000000000000000008152600401610a9690612dc4565b60405180910390fd5b610aa8816111c9565b50565b60007f01ffc9a7000000000000000000000000000000000000000000000000000000007bffffffffffffffffffffffffffffffffffffffffffffffffffffffff1916827bffffffffffffffffffffffffffffffffffffffffffffffffffffffff1916149050919050565b610b1d610ea0565b73ffffffffffffffffffffffffffffffffffffffff16610b3b610825565b73ffffffffffffffffffffffffffffffffffffffff1614610b91576040517f08c379a0000000000000000000000000000000000000000000000000000000008152600401610b8890612e30565b60405180910390fd5b565b8060029081610ba29190612ffc565b5050565b606060006001610bb584611846565b01905060008167ffffffffffffffff811115610bd457610bd3611fdc565b5b6040519080825280601f01601f191660200182016040528015610c065781602001600182028036833780820191505090505b509050600082602001820190505b600115610c69578080600190039150507f3031323334353637383961626364656600000000000000000000000000000000600a86061a8153600a8581610c5d57610c5c6130ce565b5b04945060008503610c14575b819350505050919050565b600073ffffffffffffffffffffffffffffffffffffffff168473ffffffffffffffffffffffffffffffffffffffff1603610ce3576040517f08c379a0000000000000000000000000000000000000000000000000000000008152600401610cda9061316f565b60405180910390fd5b8151835114610d27576040517f08c379a0000000000000000000000000000000000000000000000000000000008152600401610d1e90613201565b60405180910390fd5b6000610d31610ea0565b9050610d4281600087878787611999565b60005b8451811015610dfb57838181518110610d6157610d60612cac565b5b6020026020010151600080878481518110610d7f57610d7e612cac565b5b6020026020010151815260200190815260200160002060008873ffffffffffffffffffffffffffffffffffffffff1673ffffffffffffffffffffffffffffffffffffffff1681526020019081526020016000206000828254610de19190613221565b925050819055508080610df390612d0a565b915050610d45565b508473ffffffffffffffffffffffffffffffffffffffff16600073ffffffffffffffffffffffffffffffffffffffff168273ffffffffffffffffffffffffffffffffffffffff167f4a39dc06d4c0dbc64b70af90fd698a233a518aa5d07e595d983b8c0526c8f7fb8787604051610e73929190613255565b60405180910390a4610e8a816000878787876119a1565b610e99816000878787876119a9565b5050505050565b600033905090565b8151835114610eec576040517f08c379a0000000000000000000000000000000000000000000000000000000008152600401610ee390613201565b60405180910390fd5b600073ffffffffffffffffffffffffffffffffffffffff168473ffffffffffffffffffffffffffffffffffffffff1603610f5b576040517f08c379a0000000000000000000000000000000000000000000000000000000008152600401610f52906132fe565b60405180910390fd5b6000610f65610ea0565b9050610f75818787878787611999565b60005b8451811015611126576000858281518110610f9657610f95612cac565b5b602002602001015190506000858381518110610fb557610fb4612cac565b5b60200260200101519050600080600084815260200190815260200160002060008b73ffffffffffffffffffffffffffffffffffffffff1673ffffffffffffffffffffffffffffffffffffffff16815260200190815260200160002054905081811015611056576040517f08c379a000000000000000000000000000000000000000000000000000000000815260040161104d90613390565b60405180910390fd5b81810360008085815260200190815260200160002060008c73ffffffffffffffffffffffffffffffffffffffff1673ffffffffffffffffffffffffffffffffffffffff168152602001908152602001600020819055508160008085815260200190815260200160002060008b73ffffffffffffffffffffffffffffffffffffffff1673ffffffffffffffffffffffffffffffffffffffff168152602001908152602001600020600082825461110b9190613221565b925050819055505050508061111f90612d0a565b9050610f78565b508473ffffffffffffffffffffffffffffffffffffffff168673ffffffffffffffffffffffffffffffffffffffff168273ffffffffffffffffffffffffffffffffffffffff167f4a39dc06d4c0dbc64b70af90fd698a233a518aa5d07e595d983b8c0526c8f7fb878760405161119d929190613255565b60405180910390a46111b38187878787876119a1565b6111c18187878787876119a9565b505050505050565b6000600360009054906101000a900473ffffffffffffffffffffffffffffffffffffffff16905081600360006101000a81548173ffffffffffffffffffffffffffffffffffffffff021916908373ffffffffffffffffffffffffffffffffffffffff1602179055508173ffffffffffffffffffffffffffffffffffffffff168173ffffffffffffffffffffffffffffffffffffffff167f8be0079c531659141344cd1fd0a4f28419497f9722a3daafe3b4186f6b6457e060405160405180910390a35050565b600073ffffffffffffffffffffffffffffffffffffffff168473ffffffffffffffffffffffffffffffffffffffff16036112fe576040517f08c379a00000000000000000000000000000000000000000000000000000000081526004016112f59061316f565b60405180910390fd5b6000611308610ea0565b9050600061131585611b80565b9050600061132285611b80565b905061133383600089858589611999565b8460008088815260200190815260200160002060008973ffffffffffffffffffffffffffffffffffffffff1673ffffffffffffffffffffffffffffffffffffffff16815260200190815260200160002060008282546113929190613221565b925050819055508673ffffffffffffffffffffffffffffffffffffffff16600073ffffffffffffffffffffffffffffffffffffffff168473ffffffffffffffffffffffffffffffffffffffff167fc3d58168c5ae7397731d063d5bbf3d657854427343f4c083240f7aacaa2d0f6289896040516114109291906133b0565b60405180910390a4611427836000898585896119a1565b61143683600089898989611bfa565b50505050505050565b8173ffffffffffffffffffffffffffffffffffffffff168373ffffffffffffffffffffffffffffffffffffffff16036114ad576040517f08c379a00000000000000000000000000000000000000000000000000000000081526004016114a49061344b565b60405180910390fd5b80600160008573ffffffffffffffffffffffffffffffffffffffff1673ffffffffffffffffffffffffffffffffffffffff16815260200190815260200160002060008473ffffffffffffffffffffffffffffffffffffffff1673ffffffffffffffffffffffffffffffffffffffff16815260200190815260200160002060006101000a81548160ff0219169083151502179055508173ffffffffffffffffffffffffffffffffffffffff168373ffffffffffffffffffffffffffffffffffffffff167f17307eab39ab6107e8899845ad3d59bd9653f200f220920489ca2b5937696c318360405161159e9190611fa6565b60405180910390a3505050565b600073ffffffffffffffffffffffffffffffffffffffff168473ffffffffffffffffffffffffffffffffffffffff160361161a576040517f08c379a0000000000000000000000000000000000000000000000000000000008152600401611611906132fe565b60405180910390fd5b6000611624610ea0565b9050600061163185611b80565b9050600061163e85611b80565b905061164e838989858589611999565b600080600088815260200190815260200160002060008a73ffffffffffffffffffffffffffffffffffffffff1673ffffffffffffffffffffffffffffffffffffffff168152602001908152602001600020549050858110156116e5576040517f08c379a00000000000000000000000000000000000000000000000000000000081526004016116dc90613390565b60405180910390fd5b85810360008089815260200190815260200160002060008b73ffffffffffffffffffffffffffffffffffffffff1673ffffffffffffffffffffffffffffffffffffffff168152602001908152602001600020819055508560008089815260200190815260200160002060008a73ffffffffffffffffffffffffffffffffffffffff1673ffffffffffffffffffffffffffffffffffffffff168152602001908152602001600020600082825461179a9190613221565b925050819055508773ffffffffffffffffffffffffffffffffffffffff168973ffffffffffffffffffffffffffffffffffffffff168573ffffffffffffffffffffffffffffffffffffffff167fc3d58168c5ae7397731d063d5bbf3d657854427343f4c083240f7aacaa2d0f628a8a6040516118179291906133b0565b60405180910390a461182d848a8a86868a6119a1565b61183b848a8a8a8a8a611bfa565b505050505050505050565b600080600090507a184f03e93ff9f4daa797ed6e38ed64bf6a1f01000000000000000083106118a4577a184f03e93ff9f4daa797ed6e38ed64bf6a1f010000000000000000838161189a576118996130ce565b5b0492506040810190505b6d04ee2d6d415b85acef810000000083106118e1576d04ee2d6d415b85acef810000000083816118d7576118d66130ce565b5b0492506020810190505b662386f26fc10000831061191057662386f26fc100008381611906576119056130ce565b5b0492506010810190505b6305f5e1008310611939576305f5e100838161192f5761192e6130ce565b5b0492506008810190505b612710831061195e576127108381611954576119536130ce565b5b0492506004810190505b606483106119815760648381611977576119766130ce565b5b0492506002810190505b600a8310611990576001810190505b80915050919050565b505050505050565b505050505050565b6119c88473ffffffffffffffffffffffffffffffffffffffff16611dd1565b15611b78578373ffffffffffffffffffffffffffffffffffffffff1663bc197c8187878686866040518663ffffffff1660e01b8152600401611a0e9594939291906134c0565b6020604051808303816000875af1925050508015611a4a57506040513d601f19601f82011682018060405250810190611a47919061353d565b60015b611aef57611a56613577565b806308c379a003611ab25750611a6a613599565b80611a755750611ab4565b806040517f08c379a0000000000000000000000000000000000000000000000000000000008152600401611aa991906121cf565b60405180910390fd5b505b6040517f08c379a0000000000000000000000000000000000000000000000000000000008152600401611ae69061369b565b60405180910390fd5b63bc197c8160e01b7bffffffffffffffffffffffffffffffffffffffffffffffffffffffff1916817bffffffffffffffffffffffffffffffffffffffffffffffffffffffff191614611b76576040517f08c379a0000000000000000000000000000000000000000000000000000000008152600401611b6d9061372d565b60405180910390fd5b505b505050505050565b60606000600167ffffffffffffffff811115611b9f57611b9e611fdc565b5b604051908082528060200260200182016040528015611bcd5781602001602082028036833780820191505090505b5090508281600081518110611be557611be4612cac565b5b60200260200101818152505080915050919050565b611c198473ffffffffffffffffffffffffffffffffffffffff16611dd1565b15611dc9578373ffffffffffffffffffffffffffffffffffffffff1663f23a6e6187878686866040518663ffffffff1660e01b8152600401611c5f95949392919061374d565b6020604051808303816000875af1925050508015611c9b57506040513d601f19601f82011682018060405250810190611c98919061353d565b60015b611d4057611ca7613577565b806308c379a003611d035750611cbb613599565b80611cc65750611d05565b806040517f08c379a0000000000000000000000000000000000000000000000000000000008152600401611cfa91906121cf565b60405180910390fd5b505b6040517f08c379a0000000000000000000000000000000000000000000000000000000008152600401611d379061369b565b60405180910390fd5b63f23a6e6160e01b7bffffffffffffffffffffffffffffffffffffffffffffffffffffffff1916817bffffffffffffffffffffffffffffffffffffffffffffffffffffffff191614611dc7576040517f08c379a0000000000000000000000000000000000000000000000000000000008152600401611dbe9061372d565b60405180910390fd5b505b505050505050565b6000808273ffffffffffffffffffffffffffffffffffffffff163b119050919050565b6000604051905090565b600080fd5b600080fd5b600073ffffffffffffffffffffffffffffffffffffffff82169050919050565b6000611e3382611e08565b9050919050565b611e4381611e28565b8114611e4e57600080fd5b50565b600081359050611e6081611e3a565b92915050565b6000819050919050565b611e7981611e66565b8114611e8457600080fd5b50565b600081359050611e9681611e70565b92915050565b60008060408385031215611eb357611eb2611dfe565b5b6000611ec185828601611e51565b9250506020611ed285828601611e87565b9150509250929050565b611ee581611e66565b82525050565b6000602082019050611f006000830184611edc565b92915050565b60007fffffffff0000000000000000000000000000000000000000000000000000000082169050919050565b611f3b81611f06565b8114611f4657600080fd5b50565b600081359050611f5881611f32565b92915050565b600060208284031215611f7457611f73611dfe565b5b6000611f8284828501611f49565b91505092915050565b60008115159050919050565b611fa081611f8b565b82525050565b6000602082019050611fbb6000830184611f97565b92915050565b600080fd5b600080fd5b6000601f19601f8301169050919050565b7f4e487b7100000000000000000000000000000000000000000000000000000000600052604160045260246000fd5b61201482611fcb565b810181811067ffffffffffffffff8211171561203357612032611fdc565b5b80604052505050565b6000612046611df4565b9050612052828261200b565b919050565b600067ffffffffffffffff82111561207257612071611fdc565b5b61207b82611fcb565b9050602081019050919050565b82818337600083830152505050565b60006120aa6120a584612057565b61203c565b9050828152602081018484840111156120c6576120c5611fc6565b5b6120d1848285612088565b509392505050565b600082601f8301126120ee576120ed611fc1565b5b81356120fe848260208601612097565b91505092915050565b60006020828403121561211d5761211c611dfe565b5b600082013567ffffffffffffffff81111561213b5761213a611e03565b5b612147848285016120d9565b91505092915050565b600081519050919050565b600082825260208201905092915050565b60005b8381101561218a57808201518184015260208101905061216f565b60008484015250505050565b60006121a182612150565b6121ab818561215b565b93506121bb81856020860161216c565b6121c481611fcb565b840191505092915050565b600060208201905081810360008301526121e98184612196565b905092915050565b60006020828403121561220757612206611dfe565b5b600061221584828501611e87565b91505092915050565b600067ffffffffffffffff82111561223957612238611fdc565b5b602082029050602081019050919050565b600080fd5b600061226261225d8461221e565b61203c565b905080838252602082019050602084028301858111156122855761228461224a565b5b835b818110156122ae578061229a8882611e87565b845260208401935050602081019050612287565b5050509392505050565b600082601f8301126122cd576122cc611fc1565b5b81356122dd84826020860161224f565b91505092915050565b600067ffffffffffffffff82111561230157612300611fdc565b5b61230a82611fcb565b9050602081019050919050565b600061232a612325846122e6565b61203c565b90508281526020810184848401111561234657612345611fc6565b5b612351848285612088565b509392505050565b600082601f83011261236e5761236d611fc1565b5b813561237e848260208601612317565b91505092915050565b600080600080608085870312156123a1576123a0611dfe565b5b60006123af87828801611e51565b945050602085013567ffffffffffffffff8111156123d0576123cf611e03565b5b6123dc878288016122b8565b935050604085013567ffffffffffffffff8111156123fd576123fc611e03565b5b612409878288016122b8565b925050606085013567ffffffffffffffff81111561242a57612429611e03565b5b61243687828801612359565b91505092959194509250565b600080600080600060a0868803121561245e5761245d611dfe565b5b600061246c88828901611e51565b955050602061247d88828901611e51565b945050604086013567ffffffffffffffff81111561249e5761249d611e03565b5b6124aa888289016122b8565b935050606086013567ffffffffffffffff8111156124cb576124ca611e03565b5b6124d7888289016122b8565b925050608086013567ffffffffffffffff8111156124f8576124f7611e03565b5b61250488828901612359565b9150509295509295909350565b600067ffffffffffffffff82111561252c5761252b611fdc565b5b602082029050602081019050919050565b600061255061254b84612511565b61203c565b905080838252602082019050602084028301858111156125735761257261224a565b5b835b8181101561259c57806125888882611e51565b845260208401935050602081019050612575565b5050509392505050565b600082601f8301126125bb576125ba611fc1565b5b81356125cb84826020860161253d565b91505092915050565b600080604083850312156125eb576125ea611dfe565b5b600083013567ffffffffffffffff81111561260957612608611e03565b5b612615858286016125a6565b925050602083013567ffffffffffffffff81111561263657612635611e03565b5b612642858286016122b8565b9150509250929050565b600081519050919050565b600082825260208201905092915050565b6000819050602082019050919050565b61268181611e66565b82525050565b60006126938383612678565b60208301905092915050565b6000602082019050919050565b60006126b78261264c565b6126c18185612657565b93506126cc83612668565b8060005b838110156126fd5781516126e48882612687565b97506126ef8361269f565b9250506001810190506126d0565b5085935050505092915050565b6000602082019050818103600083015261272481846126ac565b905092915050565b6000806000806080858703121561274657612745611dfe565b5b600061275487828801611e51565b945050602061276587828801611e87565b935050604061277687828801611e87565b925050606085013567ffffffffffffffff81111561279757612796611e03565b5b6127a387828801612359565b91505092959194509250565b6127b881611e28565b82525050565b60006020820190506127d360008301846127af565b92915050565b6127e281611f8b565b81146127ed57600080fd5b50565b6000813590506127ff816127d9565b92915050565b6000806040838503121561281c5761281b611dfe565b5b600061282a85828601611e51565b925050602061283b858286016127f0565b9150509250929050565b6000806040838503121561285c5761285b611dfe565b5b600061286a85828601611e51565b925050602061287b85828601611e51565b9150509250929050565b600080600080600060a086880312156128a1576128a0611dfe565b5b60006128af88828901611e51565b95505060206128c088828901611e51565b94505060406128d188828901611e87565b93505060606128e288828901611e87565b925050608086013567ffffffffffffffff81111561290357612902611e03565b5b61290f88828901612359565b9150509295509295909350565b60006020828403121561293257612931611dfe565b5b600061294084828501611e51565b91505092915050565b7f455243313135353a2061646472657373207a65726f206973206e6f742061207660008201527f616c6964206f776e657200000000000000000000000000000000000000000000602082015250565b60006129a5602a8361215b565b91506129b082612949565b604082019050919050565b600060208201905081810360008301526129d481612998565b9050919050565b7f4e487b7100000000000000000000000000000000000000000000000000000000600052602260045260246000fd5b60006002820490506001821680612a2257607f821691505b602082108103612a3557612a346129db565b5b50919050565b600081905092915050565b7f68747470733a2f2f697066732e696f2f697066732f516d594a5634356763555960008201527f5241485646734454357035555576334a786e6e77717a484e695159714b56534360208201527f466d782f00000000000000000000000000000000000000000000000000000000604082015250565b6000612ac8604483612a3b565b9150612ad382612a46565b604482019050919050565b6000612ae982612150565b612af38185612a3b565b9350612b0381856020860161216c565b80840191505092915050565b7f2e6a736f6e000000000000000000000000000000000000000000000000000000600082015250565b6000612b45600583612a3b565b9150612b5082612b0f565b600582019050919050565b6000612b6682612abb565b9150612b728284612ade565b9150612b7d82612b38565b915081905092915050565b7f455243313135353a2063616c6c6572206973206e6f7420746f6b656e206f776e60008201527f6572206f7220617070726f766564000000000000000000000000000000000000602082015250565b6000612be4602e8361215b565b9150612bef82612b88565b604082019050919050565b60006020820190508181036000830152612c1381612bd7565b9050919050565b7f455243313135353a206163636f756e747320616e6420696473206c656e67746860008201527f206d69736d617463680000000000000000000000000000000000000000000000602082015250565b6000612c7660298361215b565b9150612c8182612c1a565b604082019050919050565b60006020820190508181036000830152612ca581612c69565b9050919050565b7f4e487b7100000000000000000000000000000000000000000000000000000000600052603260045260246000fd5b7f4e487b7100000000000000000000000000000000000000000000000000000000600052601160045260246000fd5b6000612d1582611e66565b91507fffffffffffffffffffffffffffffffffffffffffffffffffffffffffffffffff8203612d4757612d46612cdb565b5b600182019050919050565b7f4f776e61626c653a206e6577206f776e657220697320746865207a65726f206160008201527f6464726573730000000000000000000000000000000000000000000000000000602082015250565b6000612dae60268361215b565b9150612db982612d52565b604082019050919050565b60006020820190508181036000830152612ddd81612da1565b9050919050565b7f4f776e61626c653a2063616c6c6572206973206e6f7420746865206f776e6572600082015250565b6000612e1a60208361215b565b9150612e2582612de4565b602082019050919050565b60006020820190508181036000830152612e4981612e0d565b9050919050565b60008190508160005260206000209050919050565b60006020601f8301049050919050565b600082821b905092915050565b600060088302612eb27fffffffffffffffffffffffffffffffffffffffffffffffffffffffffffffffff82612e75565b612ebc8683612e75565b95508019841693508086168417925050509392505050565b6000819050919050565b6000612ef9612ef4612eef84611e66565b612ed4565b611e66565b9050919050565b6000819050919050565b612f1383612ede565b612f27612f1f82612f00565b848454612e82565b825550505050565b600090565b612f3c612f2f565b612f47818484612f0a565b505050565b5b81811015612f6b57612f60600082612f34565b600181019050612f4d565b5050565b601f821115612fb057612f8181612e50565b612f8a84612e65565b81016020851015612f99578190505b612fad612fa585612e65565b830182612f4c565b50505b505050565b600082821c905092915050565b6000612fd360001984600802612fb5565b1980831691505092915050565b6000612fec8383612fc2565b9150826002028217905092915050565b61300582612150565b67ffffffffffffffff81111561301e5761301d611fdc565b5b6130288254612a0a565b613033828285612f6f565b600060209050601f8311600181146130665760008415613054578287015190505b61305e8582612fe0565b8655506130c6565b601f19841661307486612e50565b60005b8281101561309c57848901518255600182019150602085019450602081019050613077565b868310156130b957848901516130b5601f891682612fc2565b8355505b6001600288020188555050505b505050505050565b7f4e487b7100000000000000000000000000000000000000000000000000000000600052601260045260246000fd5b7f455243313135353a206d696e7420746f20746865207a65726f2061646472657360008201527f7300000000000000000000000000000000000000000000000000000000000000602082015250565b600061315960218361215b565b9150613164826130fd565b604082019050919050565b600060208201905081810360008301526131888161314c565b9050919050565b7f455243313135353a2069647320616e6420616d6f756e7473206c656e6774682060008201527f6d69736d61746368000000000000000000000000000000000000000000000000602082015250565b60006131eb60288361215b565b91506131f68261318f565b604082019050919050565b6000602082019050818103600083015261321a816131de565b9050919050565b600061322c82611e66565b915061323783611e66565b925082820190508082111561324f5761324e612cdb565b5b92915050565b6000604082019050818103600083015261326f81856126ac565b9050818103602083015261328381846126ac565b90509392505050565b7f455243313135353a207472616e7366657220746f20746865207a65726f20616460008201527f6472657373000000000000000000000000000000000000000000000000000000602082015250565b60006132e860258361215b565b91506132f38261328c565b604082019050919050565b60006020820190508181036000830152613317816132db565b9050919050565b7f455243313135353a20696e73756666696369656e742062616c616e636520666f60008201527f72207472616e7366657200000000000000000000000000000000000000000000602082015250565b600061337a602a8361215b565b91506133858261331e565b604082019050919050565b600060208201905081810360008301526133a98161336d565b9050919050565b60006040820190506133c56000830185611edc565b6133d26020830184611edc565b9392505050565b7f455243313135353a2073657474696e6720617070726f76616c2073746174757360008201527f20666f722073656c660000000000000000000000000000000000000000000000602082015250565b600061343560298361215b565b9150613440826133d9565b604082019050919050565b6000602082019050818103600083015261346481613428565b9050919050565b600081519050919050565b600082825260208201905092915050565b60006134928261346b565b61349c8185613476565b93506134ac81856020860161216c565b6134b581611fcb565b840191505092915050565b600060a0820190506134d560008301886127af565b6134e260208301876127af565b81810360408301526134f481866126ac565b9050818103606083015261350881856126ac565b9050818103608083015261351c8184613487565b90509695505050505050565b60008151905061353781611f32565b92915050565b60006020828403121561355357613552611dfe565b5b600061356184828501613528565b91505092915050565b60008160e01c9050919050565b600060033d11156135965760046000803e61359360005161356a565b90505b90565b600060443d10613626576135ab611df4565b60043d036004823e80513d602482011167ffffffffffffffff821117156135d3575050613626565b808201805167ffffffffffffffff8111156135f15750505050613626565b80602083010160043d03850181111561360e575050505050613626565b61361d8260200185018661200b565b82955050505050505b90565b7f455243313135353a207472616e7366657220746f206e6f6e2d4552433131353560008201527f526563656976657220696d706c656d656e746572000000000000000000000000602082015250565b600061368560348361215b565b915061369082613629565b604082019050919050565b600060208201905081810360008301526136b481613678565b9050919050565b7f455243313135353a204552433131353552656365697665722072656a6563746560008201527f6420746f6b656e73000000000000000000000000000000000000000000000000602082015250565b600061371760288361215b565b9150613722826136bb565b604082019050919050565b600060208201905081810360008301526137468161370a565b9050919050565b600060a08201905061376260008301886127af565b61376f60208301876127af565b61377c6040830186611edc565b6137896060830185611edc565b818103608083015261379b8184613487565b9050969550505050505056fea2646970667358221220b7be081413f44b1d98a6e0315a49cac525cae3db8307d3c67ec9e93b0b5caa7664736f6c6343000813003368747470733a2f2f70696e6b2d6269747465722d746172736965722d3934362e6d7970696e6174612e636c6f75642f697066732f516d594a563435676355595241485646734454357035555576334a786e6e77717a484e695159714b565343466d782f7b69647d2e6a736f6e",
  "linkReferences": {},
  "deployedLinkReferences": {}
}